:100000000C942A000C9447000C9447000C94470071
:100010000C9447000C9447000C9447000C94470044
:100020000C9447000C9447000C9447000C94470034
:100030000C9447000C9447000C9447000C94470024
:100040000C9447000C9447000C9447000C94470014
:100050000C94470011241FBECFE5D8E0DEBFCDBF12
:1000600010E0A0E6B0E0EAEDF2E002C005900D92EB
:10007000AC37B107D9F720E0ACE7B0E001C01D9282
:10008000A038B207E1F70E940F010C946B010C94A9
:100090000000DA9A82E08A95F1F700C0DA9886EFDC
:1000A0008A95F1F708959BB397789BBB80FDDB9A07
:1000B00081FDDC9A82FDDD9A83FDDE9A0E94490073
:1000C0000895CF93C82FD898D99882958F700E94A1
:1000D00053008C2F8F700E94530086E69EE001979C
:1000E000F1F70000CF910895CF93C82FD89AD998EF
:1000F00082958F700E9453008C2F8F700E94530046
:1001000086E69EE00197F1F70000CF9108958FEF0A
:100110009FE80197F1F700C0000082E00E946100B3
:1001200088E20E9461008CE00E94610086E00E94EB
:10013000610081E00E94610086E69EE00197F1F790
:100140000000089581E00E9461000895CF93DF933D
:1001500000D0CDB7DEB790E8998390EC9A83FE018A
:10016000E80FF11D8181860F0E9461000F900F90B2
:10017000DF91CF910895CF93DF93EC01888188239D
:1001800031F021960E94740089918111FBCFDF919B
:10019000CF91089520E12AB926E820BD89B990BD04
:1001A00008955F9BFECF8CB10895DF92EF92FF928E
:1001B0000F931F93CF93DF937C01D12CC62FD0E0F8
:1001C00021970D2D10E00E94D1008D3011F08A3062
:1001D00029F4F701ED0DF11D108209C00C171D0760
:1001E00094F7F701ED0DF11D8083D394EACFDF91F1
:1001F000CF911F910F91FF90EF90DF90089515BA66
:100200009FEB980F983310F0A89A08958B558E3174
:1002100010F4A99A08959A3108F4AA9A08958FEFD4
:100220008ABB84BB15BA0E9487008FE290E00E94CF
:10023000CA0060E080E00E94A60080E690E00E9494
:10024000BB0064E08CE790E00E94D5008CE790E072
:100250000E944501C82F0E94A20060E080E00E9439
:10026000A6008BE690E00E94BB0060E081E00E9467
:10027000A6008CE790E00E94BB0086E790E00E9419
:10028000BB008C2F0E94FF00DCCFFC018827992740
:10029000E89421912032E9F3293010F02E30C8F390
:1002A0002B3241F02D3239F4689404C00E9463016E
:1002B000820F911D219120532A30C0F31EF4909596
:1002C00081959F4F08957AE0979F902D879F802D6D
:0A02D000910D11240895F894FFCF5A
:1002DA0057616974696E6720485200486561727493
:0C02EA002052617465002042504D00005D
:00000001FF
