:100000000C942A000C9447000C9447000C94470071
:100010000C9447000C9447000C9447000C94470044
:100020000C9447000C9447000C9447000C94470034
:100030000C9447000C9447000C9447000C94470024
:100040000C9447000C9447000C9447000C94470014
:100050000C94470011241FBECFE5D8E0DEBFCDBF12
:1000600010E0A0E6B0E0E6EEF2E002C005900D92EE
:10007000AC37B107D9F720E0ACE7B0E001C01D9282
:10008000A038B207E1F70E9415010C9471010C949D
:100090000000DA9A82E08A95F1F700C0DA9887ECDE
:1000A00090E00197F1F700C0000008959BB39778A6
:1000B0009BBB80FDDB9A81FDDC9A82FDDD9A83FD8E
:1000C000DE9A0E9449000895CF93C82FD898D998F6
:1000D00082958F700E9456008C2F8F700E94560060
:1000E0008FE99FE00197F1F700C00000CF910895DC
:1000F000CF93C82FD89AD99882958F700E945600B6
:100100008C2F8F700E9456008FE99FE00197F1F7C6
:1001100000C00000CF9108958FE39CE90197F1F7AB
:1001200000C0000082E00E94640088E20E94640037
:100130008CE00E94640086E00E94640081E00E94DE
:1001400064008FE99FE00197F1F700C00000089577
:1001500081E00E9464000895CF93DF9300D0CDB773
:10016000DEB790E8998390EC9A83FE01E80FF11DC9
:100170008181860F0E9464000F900F90DF91CF91D4
:100180000895CF93DF93EC018881882331F0219685
:100190000E94780089918111FBCFDF91CF91089562
:1001A00020E12AB926E820BD89B990BD08955F9B5A
:1001B000FECF8CB10895DF92EF92FF920F931F93C1
:1001C000CF93DF937C01D12CC62FD0E021970D2D4A
:1001D00010E00E94D7008D3011F08A3029F4F70129
:1001E000ED0DF11D108209C00C171D0794F7F701E2
:1001F000ED0DF11D8083D394EACFDF91CF911F9154
:100200000F91FF90EF90DF90089515BA9FEB980F34
:10021000983310F0A89A08958B558E3110F4A99A4E
:1002200008959A3108F4AA9A08958FEF8ABB84BB87
:1002300015BA0E948C0083E390E00E94D00060E039
:1002400080E00E94AC0080E690E00E94C10064E083
:100250008CE790E00E94DB008CE790E00E944B016D
:10026000C82F0E94A80060E080E00E94AC008BE6EE
:1002700090E00E94C10060E081E00E94AC008CE749
:1002800090E00E94C10087E790E00E94C1008C2F9F
:100290000E940501DCCFFC0188279927E894219171
:1002A0002032E9F3293010F02E30C8F32B3241F020
:1002B0002D3239F4689404C00E946901820F911DA7
:1002C000219120532A30C0F31EF4909581959F4FC1
:1002D00008957AE0979F902D879F802D910D11248E
:0602E0000895F894FFCF21
:1002E60057616974696E6720485200486561727487
:0C02F60020526174653A002042504D0017
:00000001FF
