:020000020000FC
:1000000000C008E00EBF0FE50DBF17E014BB1127BD
:1000100015BB17E017BB10EF1ABB38D071D099276A
:1000200000E10AB906E800BD03E309B9002700BDF5
:10003000A0E6B0E00DD0903019F43BD077D091E03D
:1000400015D08AD0A4D0F4CF5F9BFECF0CB1089519
:100050002227FADF0D3039F00A3029F02330C8F7B3
:100060000D932395F6CF00E00C93089511272AE015
:10007000A0E6B0E04D91403039F04053312F329F2F
:10008000102D1124140FF6CF012F089573E322D001
:10009000B5D072E31FD0B2D078E21CD0AFD07CE0F4
:1000A00019D0ACD071E016D0A9D076E013D0A6D08C
:1000B000089571E00FD0A2D00895C29A8DD0C29851
:1000C00090D0089570E806D099D0089570EC02D0D1
:1000D00095D00895872F807F7F707295C098C198C2
:1000E0008BBBEBDF7BBBE9DF0895872F807F7F70C1
:1000F0007295C09AC1988BBBE0DF7BBBDEDF0895B1
:10010000E1DF77E5F2DF71E6F0DF79E6EEDF74E755
:10011000ECDF79E6EADF7EE6E8DF77E6E6DF70E24D
:10012000E4DF78E4E2DF72E5E0DF0895CBDF78E436
:10013000DCDF75E6DADF71E6D8DF72E7D6DF74E779
:10014000D4DF70E2D2DF72E5D0DF71E6CEDF74E794
:10015000CCDF75E6CADF089517E014BB10E015BBCD
:1001600011E428E73AE5011748F0201738F0301776
:1001700008F002C0201728F4011730F4A89A0000F4
:100180000895A99A00000895AA9A000008959EDF94
:10019000402F552766277727443618F04456539545
:1001A000FBCF4A3018F04A506395FBCF742F80E3A1
:1001B000850F782F9ADF80E3860F782F96DF80E314
:1001C000840F782F92DF70E290DF72E48EDF70E5AB
:1001D0008CDF7DE48ADF089500000000000000004D
:1001E000089553E6000000000000000000005A954A
:1001F000C9F70000000000000000089554E164E623
:10020000000000000000000000006A95C9F75A9540
:04021000B1F70895A5
:00000001FF
