:020000020000FC
:1000000000C008E00EBF0FE50DBF17E014BB1127BD
:1000100015BB17E017BB10EF1ABB38D07FD099275C
:1000200000E10AB906E800BD03E309B9002700BDF5
:10003000A0E6B0E00DD0903019F43BD085D091E02F
:1000400015D09AD0B4D0F4CF5F9BFECF0CB10895F9
:100050002227FADF0D3039F00A3029F02330C8F7B3
:100060000D932395F6CF00E00C93089511272AE015
:10007000A0E6B0E04D91403039F04053312F329F2F
:10008000102D1124140FF6CF012F089573E322D001
:10009000C5D072E31FD0C2D078E21CD0BFD07CE0C4
:1000A00019D0BCD071E016D0B9D076E013D0B6D05C
:1000B000089571E00FD0B2D00895C29A9DD0C29831
:1000C000A0D0089570E806D0A9D0089570EC02D0B1
:1000D000A5D00895872F807F9BB39F70982BC098E1
:1000E000C1989BBBEADF872F8295807F9BB39F706F
:1000F000982B9BBBE2DF0895872F807F9BB39F7077
:10010000982BC09AC1989BBBD8DF872F8295807FA0
:100110009BB39F70982B9BBBD0DF0895D3DF77E50F
:10012000EBDF71E6E9DF79E6E7DF74E7E5DF79E643
:10013000E3DF7EE6E1DF77E6DFDF70E2DDDF78E454
:10014000DBDF72E5D9DF0895BDDF78E4D5DF75E642
:10015000D3DF71E6D1DF72E7CFDF74E7CDDF70E286
:10016000CBDF72E5C9DF71E6C7DF74E7C5DF75E68F
:10017000C3DF7AE3C1DF089517E014BB10E015BBBD
:1001800011E428E73AE5011748F0201738F0301756
:1001900008F002C0201728F4011730F4A89A0000D4
:1001A0000895A99A00000895AA9A000008958EDF84
:1001B000402F552766277727443618F04456539525
:1001C000FBCF4A3018F04A506395FBCF742F80E381
:1001D000850F782F91DF80E3860F782F8DDF80E306
:1001E000840F782F89DF70E287DF72E485DF70E5A6
:1001F00083DF7DE481DF089500000000000000003F
:10020000089553E6000000000000000000005A9529
:10021000C9F70000000000000000089554E164E602
:10022000000000000000000000006A95C9F75A9520
:04023000B1F7089585
:00000001FF
